:020000040800F2
:10000000000B001061020008072B00083F270008C2
:10001000052B0008E7030008F93000080000000085
:10002000000000000000000000000000A101000826
:100030005D06000800000000FD0100082D2B0008EF
:100040007B0200087B0200087B0200087B0200089C
:100050007B0200087B0200087B0200087B0200088C
:100060007B0200087B0200087B0200087B0200087C
:10007000D50500087B0200087B0200087B0200080F
:100080007B0200087B0200087B0200087B0200085C
:10009000E90300087B0200087B0200087B020008DD
:1000A0007B0200087B0200087B0200087B0200083C
:1000B0007B0200087B0200087B0200087B0200082C
:1000C0007B0200087B0200087B0200087B0200081C
:1000D0007B020008D53000087B020008E1300008F0
:1000E0007B0200087B0200087B0200087B020008FC
:1000F0007B0200087B0200087B0200087B020008EC
:100100007B0200087B0200087B0200087B020008DB
:100110007B0200087B020008FD2B00087B02000820
:100120007B0200087B0200087B0200087B020008BB
:100130007B0200087B0200087B0200087B020008AB
:10014000F50300087B0200087B0200087B02000820
:100150007B0200087B0200087B020008ED300008EB
:100160007B0200087B0200087B0200087B0200087B
:100170007B0200087B0200087B02000800000000F0
:100180007B0200087B020008DFF810D000F0EEF8D8
:100190000048004725390008AFF30080000B00102D
:1001A0002C4B19680868B0E8F04F80F30988BFF35A
:1001B0006F8F4FF0000080F311887047000000003F
:1001C00008480068006880F308884FF0000080F35A
:1001D000148862B661B6BFF34F8FBFF36F8F00DF35
:1001E00000BF00BF08ED00E0DFF80C00016841F43B
:1001F00070010160704700BF88ED00E0EFF30980F7
:10020000BFF36F8F134B1A681EF0100F08BF20ED5D
:10021000108A20E9F04F106009B44FF0500080F3CD
:100220001188BFF34F8FBFF36F8F04F00BFE4FF0B9
:10023000000080F3118809BC19680868B0E8F04F25
:100240001EF0100F08BFB0EC108A80F30988BFF3CE
:100250006F8F704704000010EFF3058070470000B7
:100260000648804706480047FEE7FEE7FEE7FEE750
:10027000FEE7FEE7FEE7FEE7FEE7FEE7ED2B000800
:10028000890100082DE9F05F0546002092469B4653
:1002900088460646814640241BE02846414647469C
:1002A000224600F053F853465A46C01A914110D3E3
:1002B00011461846224600F03AF82D1A67EB01085D
:1002C0004F4622460120002100F031F817EB0009CB
:1002D0004E41201EA4F10104DFDC484631462A4687
:1002E0004346BDE8F09F40EA01039B0703D009E0C5
:1002F00008C9121F08C0042AFAD203E011F8013B12
:1003000000F8013B521EF9D27047D2B201E000F86A
:10031000012B491EFBD270470022F6E710B51346A9
:100320000A4604461946FFF7F0FF204610BD202A72
:1003300004DB203A00FA02F1002070479140C2F13C
:10034000200320FA03F3194390407047202A04DB6E
:10035000203A21FA02F00021704721FA02F3D0403E
:10036000C2F120029140084319467047064C074DE0
:1003700006E0E06840F0010394E807009847103475
:10038000AC42F6D3FFF704FFEC5F00081C600008E6
:1003900070B58C1810F8015B15F0070301D110F847
:1003A000013B2A1106D110F8012B03E010F8016B74
:1003B00001F8016B5B1EF9D12B0705D40023521EF7
:1003C0000DD401F8013BFAE710F8013BCB1A921C5F
:1003D00003E013F8015B01F8015B521EF9D5A1425D
:1003E000D8D3002070BDFEE7014800F0CCBA000071
:1003F00000020010014800F0C6BA000028020010F8
:100400002DED088B84B000259FED6C8A6C4E4FF06B
:10041000FF38F0EE488AB0EE48AAF0EE489AB0EE07
:10042000489AF0EE48AA4FF462779FED66BA664CA0
:1004300042466946306805F0CDF8BDF800009DF8E9
:10044000021040BA000440EA01209DF8031008435E
:10045000B84276D1BDF9040000EE100AB8EEC00A29
:10046000DFED5A0A80EE201A71EE682AC4ED002AE8
:10047000BDF9060000EE100AB8EEC01A81EE200A9F
:1004800030EE482A84ED012ABDF9080000EE100A7A
:10049000B8EEC01A81EE200A70EE4A1AC4ED021AB4
:1004A0004DB132EEE90AB5EEC00AF1EE10FA1BDDED
:1004B00070EE4B0A1AE0F0EE628AB0EE428AB0EEBD
:1004C00061AA0125B4E7002800DA4042814201DA3E
:1004D000B0EE600A72EE490AF5EEC00AF1EE10FACB
:1004E00021DD30EECB1A20E070EE0B0ABDEEE01AF3
:1004F00011EE101ABDEEC01A002911EE100AE2DA50
:100500004942E0E7002800DA4042814201DAF0EE99
:10051000410A31EEEA1AB5EEC01AF1EE10FA32DDF8
:1005200031EE4B3A31E030EE8B1ABDEEC13A13EEAC
:10053000101ABDEEE03A002913EE100AE2DA494241
:10054000E0E72EE0002800DA4042814201DAB0EE16
:10055000431A1F48F0EE629AB0EE429A90ED003ACC
:10056000F0EE61AA33EE000A80ED000A90ED010A78
:1005700030EE200A80ED010A90ED020A30EE010A09
:1005800080ED020A54E731EE0B3AFDEEC33A13EE6A
:10059000901AFDEEC13A002913EE900AD2DA4942D0
:1005A000D0E7B0F5227F8DD1BDF80400A081BDF861
:1005B0000600E081BDF80800208239E70000000055
:1005C000A80100100000B443B40600100000C842A7
:1005D000BC010010014800F01FBD0000AC0300107A
:1005E00001681823CAB2103AB2FBF3F2054B6FF35D
:1005F0000901032A9B5CC36500D9091D8165084672
:1006000070470000CC5F000810B5014600208B69E0
:100610008A6A4FF0C07453B1B3F5005F15D072B160
:10062000012A0CD0022A0AD0032A09D104E01AB107
:10063000012A06D0022A03D1C96AC90100D50120C6
:1006400010BDC96AA142FAD010BD002AF7D0012A14
:10065000F2D0022AF3D0032AF3D010BD704772B64D
:10066000FEE790F82020012A07D0022A05D0416A2F
:1006700041F48021416201207047006842690A43C9
:10068000426100207047F0B590F820500468A468DB
:10069000012D05D0022D03D0416A41F480215DE097
:1006A00014F0406F01D1E50055D5C4F30164022C6C
:1006B00003D9416A41F4000150E00125A5401D60C5
:1006C0008D684FF4C0739DB1CE6835434E6845EADE
:1006D000C605066803EB0417F5514FF4C2750768A9
:1006E00005EB04150E697E51097D012905D009E04D
:1006F0000E88CD6845EA4655EBE701684E5946F449
:1007000080764E511179D579567941EA056195790E
:100710002D0445EA062529434FF4C676056806EB05
:100720000416A9511178D57841EA05619578527877
:100730002D0445EA022211434FF4C475026805EB0B
:1007400004155151006803EB0411425842F00102B4
:1007500042500020F0BD416A41F400114162012085
:10076000F0BD000010B590F82020012A07D0022A21
:1007700005D0416A41F480214162012010BD3B480F
:10078000D0F8002242F00102C0F80022D0F8002286
:1007900022F47C52C0F80022D0F800224B6A42EAD0
:1007A0000322C0F800220A7D02F01F0301229A40B2
:1007B000D0F81C329343C0F81C32CB69B3B9D0F8DF
:1007C0000C329343C0F80C328C894B6864F31F439E
:1007D0004C6900EBC404C4F840320C890B6864F324
:1007E0001F434C6900EBC404C4F84432CB69012BAD
:1007F00016D1D0F80C321343C0F80C320C884B6879
:1008000064F31F434C6900EBC404C4F840320C8904
:10081000CB6864F31F434C6900EBC404C4F8443252
:100820008B69002BD0F804320ED01343C0F8043289
:100830000B69002BD0F8143208D01343C0F81432DF
:10084000096A012904D008E09343EFE79343F5E7F1
:10085000D0F81C121143C0F81C12D0F8001221F07D
:100860000101C0F80012002010BD0000006400402B
:10087000704730B590F82040012C05D0022C03D0F1
:10088000416A41F480215DE00468002955D0246963
:10089000A40754D04FF4D874056804EB01142D5903
:1008A00015F00405956005682D594ED0ED0855608A
:1008B00005682C5904F00204D4604FF4DA7405681A
:1008C00004EB01142D5905F00F05156105682D592C
:1008D000C5F30725956105682C59240C54614FF424
:1008E000DC72046802EB0112A4581C700468A4585E
:1008F000240A5C700468A458240C9C700468A258F4
:10090000120EDA704FF4DE72046802EB0112A45882
:100910001C710468A458240A5C710468A458240C4F
:100920009C710468A258120EDA71006881B10169E5
:1009300041F020010161002030BDE468A8E7416A70
:1009400041F400114162012030BD6D0D1560AFE72B
:10095000C16841F02001C160EDE70246002092F835
:100960002010012901D002290CD111688A68520196
:1009700000D501208A68120100D5401C8968C90091
:1009800000D5401C70472DE9F05F05460068002443
:100990004669D0F804908768D0F80CB0D0F810A061
:1009A000D0F81880F10748D0F90714D001218160F0
:1009B000B80703D5284600F0CEFA0CE0780702D538
:1009C0004FF4006407E0380702D54FF4805402E08A
:1009D000284600F0BFFAF80516D529684FF4807054
:1009E0008860B80503D5284600F0B7FA0CE0780512
:1009F00002D544F4005407E0380502D544F480449D
:100A000002E0284600F0A8FAF80316D529684FF44A
:100A100080308860B80303D5284600F0A0FA0CE0C7
:100A2000780302D544F4004407E0380302D544F4C7
:100A3000803402E0284600F091FA300707D55FEADB
:100A4000CB6004D52968102044F40074C860700796
:100A50004FF0080707D55FEA0B7004D52868C76018
:100A6000284600F099F9B00706D52868C0688007C5
:100A700002D0284600F092F9700607D55FEACA60F6
:100A800004D52968102044F480640861B00607D5B5
:100A90005FEA0A7004D528680761284600F02AFA40
:100AA000F00606D528680069800702D0284600F0C5
:100AB00022FAB00308D55FEAC96005D5296810207D
:100AC0004860284600F018FAF00307D55FEA09707D
:100AD00004D528684760284600F042FA300446D51D
:100AE0005FEA497040D5F00504D55FEAC87001D0CF
:100AF00044F00104B00504D55FEA887001D544F0E4
:100B00000204700504D55FEA487001D544F004047E
:100B1000300529D518F0700F26D008F07000402855
:100B200015D006DC102809D020280AD0302816D18C
:100B30000AE050280ED0602811D10EE044F00804DD
:100B40000DE044F010040AE044F0200407E044F013
:100B5000400404E044F0800401E044F48074286818
:100B6000816921F070018161296804204860002CAE
:100B700005D0686A204368622846FFF779FEBDE821
:100B8000F09F70B5040003D094F8200010B104E089
:100B9000012070BD204600F081F82068016841F016
:100BA0000101016000F078FC0546052604E000F034
:100BB00073FC401B0A2811D820684068C007F6D093
:100BC0002068016821F00201016000F065FC054623
:100BD0000BE000F061FC401B0A2806D9606A40F473
:100BE0000030606284F82060D2E7206840688007A7
:100BF000EFD4207E0128206801683DD021F08001DB
:100C00000160607E01282068016838D021F0400131
:100C10000160A07E01282068016833D021F0200106
:100C20000160E07E0128206801682ED041F01001AB
:100C30000160207F01282068016829D021F0080187
:100C40000160607F01282068016824D021F0040140
:100C50000160D4E902010843D4E9041211430843B6
:100C60006168491E08432168C86100206062012054
:100C700084F82000002070BD41F08001C0E741F001
:100C80004001C5E741F02001CAE721F01001CFE79C
:100C900041F00801D4E741F00401D9E7F0B587B08D
:100CA000044614216846FFF737FB364B3648DFF819
:100CB000D0E01968D4F800C0334A0325022609277A
:100CC00010300024491CF44522D11960012907D1B4
:100CD000016841F000710160006800F0007005904B
:100CE000106840F0080010601068CDE9005600F070
:100CF0000800CDE9047069462448CDE9024500F0BA
:100D0000C5FA00220521142000F052FC142032E024
:100D1000DFF87CE0F44530D1D0F800C04CF0806CB6
:100D2000C0F800C0D0F800C001290CF0806CCDF8EC
:100D300014C0196007D1016841F0007101600068BA
:100D400000F000700590106840F00200106010681C
:100D500002AB00F0020005906020CDE9000683E8B8
:100D6000B00069460B4800F091FA002205214020AE
:100D700000F01EFC402000F00DFC07B0F0BD0000AC
:100D8000006400400000001030380240000C0240B7
:100D900000680040000402407047000030B58FB08A
:100DA000002100914C49006801240968884246D11D
:100DB00001AB06AA00214848FFF75BFD474ADDF872
:100DC0001800002152F821309D68854200D11C771F
:100DD000491CC9B20529F5D3010E8DF80C10010C80
:100DE0008DF80D10010A8DF80E108DF80F009DF88A
:100DF00004008DF810009DF805008DF811009DF895
:100E000006008DF812009DF807008DF813009DF87C
:100E100008008DF814009DF809008DF815009DF864
:100E20000A008DF816009DF80B008DF817002C486D
:100E300000236A4603A9006804F062FB3EE02949EA
:100E40000968884245D101AB06AA00212548FFF771
:100E500010FD06980023010E8DF80C10010C8DF882
:100E60000D10010A8DF80E108DF80F009DF804008A
:100E70008DF810009DF805008DF811009DF8060012
:100E80008DF812009DF807008DF813009DF80800FA
:100E90008DF814009DF809008DF815009DF80A00E2
:100EA0008DF816009DF80B008DF817000E486A4665
:100EB00003A9006804F024FB0C4804700098002883
:100EC00007D00B494FF080500860BFF34F8FBFF33E
:100ED0006F8F0FB030BD000000020010AC05001095
:100EE000A401001028020010A801001088010010C1
:100EF00004ED00E0704770477047000070B504468D
:100F000090F82000012804D0606A40F4002060625C
:100F100018E0022084F820002068016821F0010117
:100F2000016000F0B9FA05460EE000BF00F0B4FA27
:100F3000401B0A2808D9606A40F40030606205202E
:100F400084F82000012070BD20684068C007EDD102
:100F5000606270BD70477047704770477047704758
:100F600070472DE9F0410446876D00F095FA06467A
:100F700094F835000025022806D08020606584F8AA
:100F800034500120BDE8F0812068016821F016018D
:100F900001602068416921F080014161206C08B93D
:100FA000A06C20B12068016821F008010160206870
:100FB000016821F0010101600CE000F06DFA801B76
:100FC000052807D920206065032084F8350084F8BF
:100FD0003450D7E720680068C007EED194F85C1061
:100FE0003F208840B860012084F8350084F83450F0
:100FF0000020C7E790F83510022903D08021416511
:1010000001207047052180F835100068016821F043
:1010100001010160002070472DE9F84304464FF0BC
:101020000009CDF8009063484FF41651A56D006893
:10103000B0FBF1F72E6894F85C10082000FA01F17B
:1010400031420FD021680A6852070BD50A6822F096
:1010500004020A6094F85C108840A860606D40F05B
:101060000100606594F85C104FF0010808FA01F087
:10107000304208D021684969090604D5A860606D2E
:1010800040F00200606594F85C1004208840304213
:1010900008D021680968890704D5A860606D40F010
:1010A0000400606594F85C1010208840304218D02D
:1010B00021680968090714D5A860206801684903F8
:1010C00004D50068000308D5A16C07E00168C905D4
:1010D00003D4016821F008010160216C09B12046A8
:1010E000884794F85C1020208840304231D0216835
:1010F0000968C9062DD5A86094F835000528206830
:10110000016806D0490347D5006800031DD4616C0F
:101110001CE021F0160101602068416921F0800186
:101120004161206C08B9A06C20B12068016821F0F1
:101130000801016094F85C103F208840A86084F8A2
:10114000358084F83490216D1FE0E16B09B12046B1
:101150008847606D00282BD0606DC00714D0052033
:1011600084F835002068016821F0010101600098D1
:10117000401C0090B84203D820680068C007F6D130
:1011800084F8358084F83490E16C002910D001B0E7
:101190002046BDE8F04308470168C905D5D4016879
:1011A00021F01001016084F8358084F83490CCE798
:1011B000BDE8F883FC0100102DE9F041044600F081
:1011C0006BF906465CB1022084F83500002584F8EE
:1011D00034502068016821F0010101600DE0012018
:1011E000BDE8F08100F058F9801B052805D92020C2
:1011F0006065032084F83500F2E720680068C007C6
:10120000F0D12268116820480140D4E90103184355
:10121000D4E903363343184363691843A369184379
:10122000E3691843236A18430843616A042903D118
:10123000D4E90B1319430843106020684069666ABB
:1012400020F0070130460E43012704280CD1A06A84
:101250000643E06A40B12046FFF7D6F920B14020AE
:10126000606584F83570BAE7206846612046FFF76C
:10127000B7F994F85C203F2191408160656584F85E
:1012800035700020ACE700003F8010F02DE9F84FEA
:10129000DFF8BCA1002201250AF1040B03264FF060
:1012A0000F090BF1040E00BF0B6805FA02F423408E
:1012B000A34270D10F7907F00307012F01D0022F4D
:1012C00016D187684FEA420806FA08FC27EA0C079D
:1012D000D1F80CC00CFA08FC4CEA070CC0F808C0A6
:1012E0004768A7430C79C4F3001494403C4344601E
:1012F0000C79E443A4070AD0C4684FEA420C06FA0A
:101300000CF7BC438F6807FA0CF72743C7600C79CA
:1013100004F00304022C12D1D40800EB840CDCF896
:1013200020405707FF0E09FA07F824EA0804D1F80D
:10133000108008FA07F848EA0408CCF8208004680E
:101340004FEA420C06FA0CF7BC430F7907F003078B
:1013500007FA0CF7274307604C6814F4403F70D03D
:101360003C4C276847F480472760246822F0030735
:1013700004F480440094384C07EB040CDCF8084873
:1013800097074FEA177809FA08F7BC43334FB8427A
:1013900002D1002724E054E0314FB84201D10127A7
:1013A0001EE0304FB84201D1022719E02E4FB8425B
:1013B00001D1032714E02D4FB84201D104270FE0DB
:1013C0002B4FB84201D105270AE02A4FB84201D17C
:1013D000062705E0284FB84201D1072700E008277B
:1013E00007FA08F72743CCF80878DAF800405746A0
:1013F000D1F804C09C435FEACC3C00D51C433C6060
:10140000DBF800405F46D1F804C09C435FEA8C3CA7
:1014100000D51C433C60DEF800407746D1F804C09C
:101420009C435FEACC2C00D51C433C60084F0C3732
:101430003C68D1F804C09C435FEA8C2C00D51C4367
:101440003C60521C102AFFF42FAFBDE8F88F00005B
:10145000003C01404438024000300140000002409E
:101460000004024000080240000C0240001002404C
:101470000014024000180240001C0240426921EAA8
:1014800002030A4043EA0241816170470AB1816167
:1014900070470904FBE700000148806870470000BE
:1014A000F0010010024881680278114481607047A1
:1014B000F00100100B4810B5016841F400710160A3
:1014C000016841F480610160016841F4807101604C
:1014D000032000F08DF8002000F006F800F03EF840
:1014E000002010BD003C024010B5014688B000222B
:1014F000362000F05DF8362000F04CF81348002448
:10150000016841F010010160006805A900F01000B9
:101510000690684600F018F900F036F90C494000D2
:10152000B0FBF1F10C480B4A491E026040F2E73271
:10153000C0E90324C0E9011400F0A2FB10B10120AE
:1015400008B010BD044800F0C9FBF9E7403802407C
:1015500040420F00001000400C0400100C4882B004
:10156000016841F480410160006800F4804000900F
:101570000748001F016841F08051016000680022A7
:1015800000F0805000900F21901E02B000F010B8C3
:1015900044380240002809DB00F01F02012191407D
:1015A0004009800000F1E020C0F800117047000001
:1015B000F0B40E4B1B680C46C3F30223C3F10705BE
:1015C000042D00D90425191D072901D2002300E0AC
:1015D000DB1E012606FA05F1491E214099409E4076
:1015E000761E16403143F0BC01F0E0BD0CED00E08A
:1015F000064900F0070208684FF6FF03184040EA6A
:101600000220034A10430860704700000CED00E020
:101610000000FA052DE9F0470E46050065D0DFF819
:101620001481D8F80000F7B200F00700B04207D2EA
:1016300088F80070D8F8000000F00700B04254D1DC
:1016400028683D4C810712D5400703D5206840F437
:10165000E05020602878000703D5206840F46040FF
:1016600020602068A96820F0F000084320602878F6
:10167000C0072DD0304968680839012812D00228E7
:1016800013D0032811D00968890700292DDA2168B1
:1016900021F0030101432160FFF7FEFE814641F284
:1016A000883A0EE009688903EFE709688901ECE7E9
:1016B000FFF7F2FEA0EB0901514502D90320BDE876
:1016C000F0872068696800F00C00B0EB810FEFD163
:1016D000D8F80010404601F00701B14207D9077061
:1016E000006800F00700B04201D00120E7E7287849
:1016F000400705D52068E96820F4E05008432060E1
:101700002878000706D52068296920F4604040EA5F
:10171000C100206000F058F82168084AC1F30311A5
:10172000515CC8400649086006480068FFF7DCFEC7
:101730000020C4E7003C024008380240D45F0008A3
:10174000FC010010F40100100F2202600C4A136823
:1017500003F003034360136803F0F003836013682E
:1017600003F4E053C36012684FF4E05303EAD2027B
:1017700002610448006800F007000860704700003C
:1017800008380240003C02400448054900680968E6
:10179000044AC1F38221515CC8407047FC0100102B
:1017A00008380240E45F00080448054900680968F9
:1017B000044AC1F34231515CC8407047FC0100103B
:1017C00008380240E45F0008154810B5006810F0C2
:1017D0000C02144813D01449042A0FD0082A0ED141
:1017E0000F4C241F2268236802F03F025B0207D5DA
:1017F0002068C0F38810A0FB010106E0084610BD78
:101800002168C1F38811A1FB00010023FEF73AFD16
:101810002168C1F30141491C4900B0FBF1F010BD42
:10182000083802400024F400001BB7002DE9F84FEF
:1018300004006ED02078DFF84C93C007A9F10405AE
:101840004AD009F104000168C1F38101012908D0DF
:101850000068C0F3810002280AD1D9F800004002D4
:1018600006D52868800337D560680028E1D033E0CA
:101870006068B0F5803F10D0B0F5A02F286810D078
:1018800020F480302860286820F480202860606878
:10189000A8B1FFF701FE06460DE0286840F480304D
:1018A000F4E740F480202860F7E700BFFFF7F4FD7D
:1018B000801B642873D828688003F7D50CE0FFF7F5
:1018C000EBFD064605E000BFFFF7E6FD801B642840
:1018D000F0D828688003F7D42078DFF8AC8280073E
:1018E0004FF0000A3ED5A748001D016811F00C0F0B
:1018F00008D00068C0F3810002280BD1D9F800009D
:10190000400207D42868800716D5E068012800D176
:1019100012E033E1E068B8B10120C8F80000FFF739
:10192000BBFD064605E000BFFFF7B6FD801B0228A1
:10193000C0D828688007F7D52868216920F0F8000A
:1019400040EAC10028600DE0C8F800A0FFF7A4FD40
:10195000064604E0FFF7A0FD801B02281FD8286878
:101960008007F7D42078000722D5864F8748616921
:10197000703771B101210160FFF78EFD064604E06A
:10198000FFF78AFD801B022809D838688007F7D541
:101990000EE0C0F800A0FFF77FFD064605E082E0FC
:1019A000FFF77AFD801B02287DD838688007F7D4BE
:1019B0002078400768D5DFF8CCB100270BF13C0B4D
:1019C000DBF80000C0000BD4DBF8001041F08051C0
:1019D000CBF80010DBF80000012700F080500090E9
:1019E0006B4E3068C00510D4306840F480703060B1
:1019F000FFF752FD009005E0FFF74EFD0099401AF9
:101A0000022850D83068C005F6D55E4EA0686C3606
:101A100001280FD00528306810D020F00100306078
:101A2000306820F004003060A068B8B1FFF734FDE2
:101A300000900FE0306840F00100F4E740F004004F
:101A40003060F7E7FFF728FD0099411A41F288302E
:101A5000814266D830688007F4D50EE0FFF71CFDA0
:101A6000009007E0FFF718FD0099411A41F2883015
:101A7000814256D830688007F4D42FB1DBF80010CB
:101A800021F08051CBF80010A069C8B33D49091D71
:101A90000968C1F3810102294AD00228504607D0C3
:101AA000C8F8600000E03CE0FFF7F6FC04463BE0CD
:101AB0004746C8F86000FFF7EFFC064605E000BFA8
:101AC000FFF7EAFC801B02282BD828688001F7D496
:101AD000D4E907010843A16A2E4A490802EB0141F3
:101AE000626A41EA8211084394F82C1040EA0161CD
:101AF000C9F8001001203866FFF7CEFC044606E066
:101B00003EE000BFFFF7C8FC001B022809D8286888
:101B10008001F7D534E000BFFFF7BEFC001B0228B0
:101B200002D90320BDE8F88F28688001F4D427E0AB
:101B30000128F7D0D9F80000E26900F48001914251
:101B40001CD1226A00F03F01914217D147F6C071C3
:101B5000626A0140B1EB821F10D1A26A4FF0FF33DD
:101B600000F4403103EB5202B1EB024F06D194F87E
:101B70002C1000F07060B0EB016F01D00120D1E7B4
:101B80000020CFE70438024000004742800E474261
:101B9000007000400000FFFF7047704710B590F8DC
:101BA0003C20012A22D0012280F83C20CA688C689F
:101BB00022F4407222434C6822F4806222430C6873
:101BC00022F4006222430C6922F4805222434C69C1
:101BD00022F400522243C969002322F480420A43BE
:101BE00001684A6480F83C30002010BD022010BD1E
:101BF00070B590F83C20012A32D0012480F83C4096
:101C0000022280F83D2003685A689D6822F0700621
:101C10000A6832435A60134B02689A4214D0B2F1F8
:101C2000804F11D0104B9A420ED0104B9A420BD0DD
:101C30000F4B9A4208D00F4B9A4205D00E4B9A4256
:101C400002D00E4B9A4204D1496825F08003194313
:101C5000916080F83D40002180F83C10084670BD3E
:101C6000022070BD00000140000400400008004058
:101C7000000C0040000401400040014000180040FA
:101C800010B5040003D094F83D0010B107E0012026
:101C900010BD002084F83C00204600F01EF8022011
:101CA00084F83D00211D206800F0AEFF012084F87B
:101CB000460084F83E0084F83F0084F8400084F831
:101CC000410084F8420084F8430084F8440084F81A
:101CD000450084F83D00002010BD704790F83D108D
:101CE000012901D001207047022180F83D100168D0
:101CF000CA6842F00102CA6000681149884214D0E3
:101D0000B0F1804F11D00F4988420ED00E49884261
:101D10000BD00E49884208D00D49884205D00D49A4
:101D2000884202D00C49884204D1816801F0070141
:101D3000062903D0016841F00101016000207047CD
:101D4000000001400004004000080040000C00407A
:101D5000000401400040014000180040704770B589
:101D60000446006801694FF00005C943890715D48E
:101D7000C168C943890711D4E91E01610120207798
:101D8000206880698007204602D0FFF7E7FF04E063
:101D900000F0DAF8204600F08BF925772068016919
:101DA000C943490717D4C168C943490713D46FF021
:101DB00004010161022020772068806910F4407FCF
:101DC000204602D0FFF7CAFF04E000F0BDF820462D
:101DD00000F06EF9257720680169C943090716D418
:101DE000C168C943090712D46FF0080101610420DA
:101DF00020772068C0698007204602D0FFF7AEFF39
:101E000004E000F0A1F8204600F052F925772068A0
:101E10000169C943C90617D4C168C943C90613D4A7
:101E20006FF010010161082020772068C06910F46C
:101E3000407F204602D0FFF791FF04E000F084F8D5
:101E4000204600F035F9257720680169C943C907A4
:101E500008D1C168C943C90704D1891E0161204660
:101E600000F08CF920680169C943090609D4C168EA
:101E7000C943090605D46FF0800101612046FFF7D0
:101E80008BFE20680169C943490609D4C168C9436A
:101E9000490605D46FF040010161204600F078F951
:101EA00020680169C94389060BD4C168C943890602
:101EB00007D46FF0200101612046BDE87040FFF7B4
:101EC0006CBE70BD10B586B0044614216846FEF79E
:101ED00023FA2368174C002117480222A34211D18C
:101EE000036843F010030360006800F010000590E1
:101EF00010020090CDE901210120CDE903106946CF
:101F00000E4813E00E4CA34212D1036843F48073D1
:101F10000360006800F480700590C0200090CDE957
:101F200001210320CDE9031069460648FFF7AEF909
:101F300006B010BD000001403038024000100240E1
:101F40000004014000200240704770B5044690F83C
:101F50003C0000260D4601280FD0012084F83C00EB
:101F60006AB1042A1DD0082A2FD00C2A3FD001269E
:101F7000002084F83C00304670BD022070BD20680F
:101F800000F0B4FE2068816941F008018161206899
:101F9000816921F004018161206881692A69114306
:101FA00011E0206800F0D2FE2068816941F40061F0
:101FB00081612068816921F4806181612068816983
:101FC0002A6941EA02218161D2E7206800F0F4FE2B
:101FD0002068C16941F00801C1612068C16921F030
:101FE0000401C1612068C1692A69114311E02068B8
:101FF00000F016FF2068C16941F40061C1612068EA
:10200000C16921F48061C1612068C1692A6941EA1E
:102010000221C161ACE710B5040003D094F83D0083
:1020200010B107E0012010BD002084F83C002046DC
:1020300000F01EF8022084F83D00211D206800F009
:10204000E3FD012084F8460084F83E0084F83F0058
:1020500084F8400084F8410084F8420084F843008A
:1020600084F8440084F8450084F83D00002010BD49
:1020700008B50C4A01680C48914207D1016841F04B
:1020800001010160006800F0010009E0074A914287
:1020900007D1016841F002010160006800F0020010
:1020A000009008BD00000140443802400004014097
:1020B0007047000010B50446022249B104290ED031
:1020C000082913D094F84100012816D0012010BD32
:1020D00094F83E000128F9D184F83E200FE094F8EE
:1020E0003F000128F2D184F83F2008E094F8400036
:1020F0000128EBD184F8402001E084F8412001223E
:10210000206800F0E5FD16492068164A884201D093
:10211000904203D1436C43F40043436420688842F7
:1021200013D0B0F1804F10D00F4988420DD00F4925
:1021300088420AD00E49884207D0904205D00D4906
:10214000884202D00C49884204D1816801F007011D
:10215000062903D0016841F001010160002010BD93
:10216000000001400004014000040040000800405D
:10217000000C004000400140001800400068034986
:10218000884201D1FFF78EB970470000001000406F
:10219000704718B5034690F83E00202822D181B13F
:1021A0007AB193F83C0001281CD0012083F83C0050
:1021B0001863184600F072FF002803D1196B01293B
:1021C00001D0012018BD19680A6849680091196892
:1021D0000C3151E8002F42F0100241E80024002C9D
:1021E000F5D118BD022018BD38B500210091234952
:1021F00000680124096888420DD1224800236A46FC
:102200001F49006803F07CF912221D491B48FFF7A3
:10221000C0FF1D4812E01D490968884210D11C48C2
:10222000174900236A461231006803F069F914491E
:102230000F2212311548FFF7ACFF1648047011E069
:1022400015490968884218D114480D4900236A4687
:102250002131006803F054F90949172221310E4851
:10226000FFF797FF0098002807D00D494FF08050E6
:102270000860BFF34F8FBFF36F8F38BD240300108A
:1022800060060010A00100108A010010E00200109A
:10229000AC0100109901001068030010B00100109B
:1022A00004ED00E070470000F8B5016804460868D6
:1022B000CA684B6910F00F0F4FF0000559D003F0BA
:1022C000010602F49077374365D0C10705D0D105E8
:1022D00003D5216C41F001012164410705D5D907DF
:1022E00003D0216C41F002012164810705D5D90793
:1022F00003D0216C41F004012164010707D502F0ED
:102300002001314303D0216C41F008012164216C8C
:1023100000293AD0800604D5900602D5204600F068
:10232000D6FD20684069216CC0F38010090700D4F5
:1023300060B3204600F0A4FD20684069400621D526
:102340002068143050E8001F21F0400140E80012DE
:10235000002AF5D1A06BA8B16C490165A06BFEF70E
:1023600049FE002811D0A06B016D01B0BDE8F0401E
:10237000084783060FD593060DD52046BDE8F840E3
:1023800000F0A5BD2046FFF78DFFF8BD2046FFF702
:1023900089FF2564F8BD266B2023012E79D1C6065E
:1023A00077D5D60675D50868486800904869400614
:1023B00040D5A16B086840680004000CEAD0A28DEB
:1023C0008242E7D9E085C869B0F5807F2DD02068CA
:1023D0000C3050E8001F21F4807140E80012002A00
:1023E000F5D12068143050E8001F21F0010140E8C9
:1023F0000012002AF5D12068143050E8001F21F0A7
:10240000400140E80012002AF5D184F83E302563EF
:1024100020680C3050E8001F21F0100140E8001245
:10242000002AF5D1A06BFEF79CFDA08DE18D401A2E
:1024300081B229E0A08DE18D401A81B2E08D0028A3
:10244000A8D00029A6D020680C3050E8002F22F434
:10245000907240E80026002EF5D12068143050E834
:10246000002F22F0010240E80026002EF5D184F86A
:102470003E30256320680C3050E8002F22F0100217
:1024800040E80023002BF5D12046FFF7ADFEF8BD54
:10249000FFE705062BD5150629D594F83D00212820
:1024A000F5D1A068B0F5805F01D12069B0B1206A94
:1024B000411C2162216800784860E08C401E0004C5
:1024C000000CE084E3D12068C16821F08001C16084
:1024D0002068C16841F04001C160D8E7206A0088E7
:1024E000C0F308004860206A801C2062E5E74006CF
:1024F000CDD55006CBD5CA68204622F04002CA602E
:1025000084F83D3000F01AF9C1E70000712E000890
:1025100070B5040004D094F83D00002510B106E029
:10252000012070BD84F83C50204600F023F82420A0
:1025300084F83D002068C16821F40051C160204644
:1025400000F026FD2068016921F4904101612068B6
:10255000416921F02A0141612068C16841F40051BC
:10256000C1602564202084F83D0084F83E000020EE
:1025700070BD0000F0B587B0074614216846FDF72E
:10258000CBFE5549DFF84CC13B680024524A143950
:10259000022503260720634533D1136843F0100357
:1025A0001360126802F0100205920A6842F00202FB
:1025B0000A600A6802F0020205920A6842F001020B
:1025C0000A600968074601F0010105918021CDE903
:1025D000001502AB694683E8D0004048FEF756FE7E
:1025E0002802CDE9000502AB694683E8D0003C48EB
:1025F000FEF74CFE002205212520FEF7D9FF2520FD
:102600003DE0DFF8E0C063453DD1334A121F136857
:1026100043F480231360126802F4802205920A6852
:1026200042F004020A600968029401F00401059175
:102630004FF44061CDE90015CDE9036069462A48B1
:10264000FEF724FE2A4D294828604FF00060C5E9B6
:1026500001044014C5E903406C61AC61EC612C627B
:1026600028466C62FEF7A8FD08B1FDF7F8FFBD63D0
:10267000002205212720AF63FEF79AFF2720FEF7EF
:1026800089FF07B0F0BD1B488342FAD1106840F0C3
:1026900020001060106800F020000590086840F0ED
:1026A000400008600868029400F0400005904FF474
:1026B0008440CDE900050820CDE9036069460E4855
:1026C000FEF7E4FD002205214720FEF771FF4720B9
:1026D000D5E70000001001404438024000040240E9
:1026E000000002400048004000080240286002400C
:1026F000AC0300100014014000180240704790F82D
:102700003D30202B18D1A9B1A2B190F83C30012B5B
:1027100012D001628284C28400210164212280F8E7
:102720003D2080F83C100068C16841F08001C16024
:102730000020704701207047022070477047FEE775
:102740000E4810B50C4901600621416000214FF48C
:1027500080228160C0E90312416101764176817671
:10276000C17601774177FEF70CFA002803D0BDE867
:102770001040FDF774BF10BD00640040000200105F
:102780000E4810B50C4901600C21416000214FF446
:1027900080228160C0E90312416101764176817631
:1027A000C17601774177FEF7ECF9002803D0BDE848
:1027B0001040FDF754BF10BD006800402802001013
:1027C000094808B5016841F4001101600068002261
:1027D00000F40010009005210C20FEF7E9FEBDE892
:1027E00008400C20FEF7D6BE303802402DE9F047F5
:1027F00086B014216846FDF78FFD3C48002401682F
:1028000041F002010160016801F0020105910168D7
:1028100041F040010160016801F04001059101684B
:1028200041F001010160016801F0010105910168B9
:1028300041F008010160016801F00801059101689B
:1028400041F004010160016801F004010591016893
:1028500041F480710160016801F4807105910168A3
:1028600041F080010160016801F08001059101687B
:1028700041F0100101600068DFF8748000F0100082
:102880004FF4E0550590002229464046FEF7FEFD34
:10289000DFF860904FF42056002231464846FEF79C
:1028A000F5FDDFF854A04FF440570022394650465A
:1028B000FEF7ECFD00950125CDE90154694640463F
:1028C0000394FEF7E3FC0096CDE9015469464846BF
:1028D0000394FEF7DBFC0097CDE9015469465046AE
:1028E0000394FEF7D3FC06B0BDE8F0873038024011
:1028F000001C0240001002400004024010B592B0DB
:1029000000240F941C2108A81094FDF705FD202138
:102910006846FDF701FD21481F49016040F247313B
:10292000C0E9011440F2CF71C0E90314446184612D
:10293000FFF771FB08B1FDF792FE0F940FA917483E
:102940001094FFF755F908B1FDF789FE6020CDE935
:1029500008040A940B940C940D94002208A90F48C3
:102960000E94FFF7F2FA08B1FDF779FE00944FF4E8
:102970000050CDE90440029401940394694607484D
:102980000794FFF70BF908B1FDF769FE0348FFF75D
:1029900099FA12B010BD0000000001405002001072
:1029A00010B592B000240F941C2168461094FDF7D6
:1029B000B3FC202107A8FDF7AFFC244822490160A1
:1029C000A721C0E9011440F6C311C0E90314446112
:1029D0008461FFF720FB08B1FDF741FE0F940FA9BA
:1029E0001A481094FFF704F908B1FDF738FE60208B
:1029F000CDE90004029403940494059404226946EA
:102A000012480694FFF7A1FA08B1FDF728FE082244
:102A100069460E48FFF799FA08B1FDF720FE0794C2
:102A2000089409944FF400500A94CDE90B4007A98B
:102A300006480E94FFF7B2F808B1FDF710FE034800
:102A4000FFF740FA12B010BD0004014098020010D8
:102A50000C4810B50A4901604FF4E1314160002192
:102A600081600C22C160C0E904128161C161FFF77D
:102A70004FFD002803D0BDE81040FDF7F0BD10BDAC
:102A800000100140E00200100E4810B50C49016032
:102A90000D4941604FF48051816000214FF4806204
:102AA000C0E903120C22C0E90521C161FFF730FD26
:102AB000002803D0BDE81040FDF7D1BD10BD0000D7
:102AC0000048004024030010A08601000C4810B507
:102AD0000A4901604FF4E1314160002181600C221C
:102AE000C160C0E904128161C161FFF711FD0028D6
:102AF00003D0BDE81040FDF7B2BD10BD0014014089
:102B000068030010FEE7FEE7074A002152F8213073
:102B10009B68834201D148B27047491CC9B205295C
:102B2000F4D34FF0FF307047AC05001010B55020C3
:102B300080F31188BFF34F8FBFF36F8F02F06AFFEE
:102B400018B104494FF080500860002080F31188CC
:102B500010BD000004ED00E030B593B030216846B0
:102B6000FDF7DAFB14210CA8FDF7D6FB1D48002564
:102B7000016841F080510160006800F080501190C0
:102B80001948016841F4804101600068022400F4A2
:102B90008040119001200090000401908001CDE957
:102BA000064006200890A820CDE9090404200B90D7
:102BB0006846FEF73BFE08B172B6FEE70CA90F208F
:102BC00081E831004FF4A0500F904FF480501090E6
:102BD00005210CA8FEF71EFD002801D072B6FEE705
:102BE00013B030BD40380240007000400248016818
:102BF00041F470010160704788ED00E00148FFF783
:102C0000AEB800000C040010F0B50268254C264D4B
:102C1000264E274F274B4FF0804CA04209D06045ED
:102C200007D0A84205D0B04203D0B84201D09842A4
:102C300004D122F0700E4A6842EA0E02A0421BD074
:102C4000604519D0A84217D0B04215D0B84213D071
:102C5000984211D0184DA8420ED0184DA8420BD062
:102C6000174DA84208D0174DA84205D0164DA842CE
:102C700002D0164DA84203D122F44075CA682A43F7
:102C80004D6922F080022A4302608A68C2620A68A3
:102C90008262A04201D0984201D1096901630121F9
:102CA0004161F0BD00000140000400400008004008
:102CB000000C00400004014000400140004401407D
:102CC0000048014000180040001C00400020004067
:102CD00010B501F01F030121046A99408C4304627E
:102CE000016A9A401143016210BD0000F0B5026A0A
:102CF00022F001020262036A42688469124E24F0E3
:102D000073050C682C4323F002058B682B430D4D93
:102D1000A84201D0B04205D123F00807CB683B435D
:102D200023F00403A84201D0B04205D14D6922F43A
:102D3000407215438A692A4342608461496841634D
:102D40000362F0BD0000014000040140F0B5026ADA
:102D500022F010020262026A436884690D6824F45A
:102D6000E64444EA05248D6822F0200242EA051276
:102D70000F4D104EA84201D0B04206D1CF6822F0CC
:102D8000800242EA071222F04002A84201D0B0427B
:102D900007D14D6923F4406343EA85038D6943EA13
:102DA000850343608461496881630262F0BD00006D
:102DB0000000014000040140F0B5026A22F4807274
:102DC0000262026A4368C46922F4007224F0730547
:102DD0000C68124E2C438D6842EA05220E4DA84223
:102DE00001D0B04206D1CF6822F4006242EA072245
:102DF00022F48062A84201D0B04207D14D6923F489
:102E0000405343EA05138D6943EA05134360C461E7
:102E10004968C1630262F0BD000001400004014046
:102E200030B5026A22F480520262046A4268C369C1
:102E30000D6823F4E64343EA05238D6824F4005427
:102E400044EA0534084DA84202D0084DA84204D1F6
:102E50004D6922F4804242EA85124260C3614968AA
:102E60000164046230BD0000000001400004014024
:102E700010B5806B0021C185C184FFF713FA10BD26
:102E800001680C3151E8002F22F4907241E80023D0
:102E9000002BF5D10168143151E8002F22F0010216
:102EA00041E80023002BF5D1016B012909D101680C
:102EB0000C3151E8002F22F0100241E80023002BD2
:102EC000F5D1202180F83E1000210163704708B53C
:102ED00090F83E10222901D0022008BD82684FF4EC
:102EE00080539A4201D1016921B1816A9A421BD073
:102EF0004AB10AE00268816A5268C2F308020A8095
:102F0000816A891C08E0026972B10268526802F0A5
:102F10007F020A70816A491C8162C18D491E0904C1
:102F2000090CC18503D019E002685268F1E7016815
:102F3000CA6822F02002CA600168CA6822F480725E
:102F4000CA6001684A6922F001024A61202180F8C2
:102F50003E10016B012903D0FFF7D0FB002008BD14
:102F60000021016301680C3151E8002F22F01002AA
:102F700041E80023002BF5D101680A68D20602D58A
:102F80000A6849680091818DFFF72EF9E6E7000095
:102F900070B5044600680169E26821F440511143AC
:102FA00001612169A068E26908436169114308432E
:102FB0002168CA6849F20C639A430243CA602068D8
:102FC0004169A26921F4407111434161314920688E
:102FD000884202D03049884202D1FEF7E5FB01E089
:102FE000FEF7D2FBE2690023192164253226B2F5EF
:102FF000004F626828D0A0FB0101930F9200FDF7FB
:1030000041F90146B0FBF5F06FF01802504301EBB7
:10301000800006EB0010B0FBF5F000F0F002B1FB11
:10302000F5F002EB0012B1FBF5F06FF01803584316
:1030300001EB800006EB0010B0FBF5F000F00F0094
:1030400021681044886070BDA0FB010192185B41AB
:10305000FDF718F90146B0FBF5F00201B1FBF5F000
:103060006FF01803584301EB800006EBC000B0FB83
:10307000F5F000F0F80002EB4002B1FBF5F0584328
:1030800001EB800006EBC000B0FBF5F000F007009C
:10309000D6E70000001001400014014081628285E3
:1030A000C28500210164222280F83E2080F83C1075
:1030B0000168CA6842F48072CA6001684A6942F0D5
:1030C00001024A610068C16841F02001C16000202E
:1030D000704700000148FFF7E7B80000E002001069
:1030E0000148FFF7E1B80000240300100148FFF792
:1030F000DBB8000068030010FEE70000134951F838
:10310000201013488A68A2F50073053B0FD0A2F582
:103110000073063B10D0A2F50073073B11D0B2F547
:10312000027F03D1098A0A0A8271C1717047098A34
:103130000A0A027041707047098A0A0A8270C170D7
:103140007047098A0A0A027141717047AC05001084
:103150009C000010134951F8201013488A68A2F50A
:103160000073013B0FD0A2F50073023B10D0A2F513
:103170000073033B11D0B2F5017F03D1098A0A0A1B
:103180008271C1717047098A0A0A027041707047E2
:10319000098A0A0A8270C1707047098A0A0A027194
:1031A00041717047AC050010940000100907090E2A
:1031B000002804DB00F1E02080F80014704700F0E4
:1031C0000F0000F1E02080F8141D704702E008C8ED
:1031D000121F08C1002AFAD170477047002001E091
:1031E00001C1121F002AFBD1704700000FB42DE966
:1031F000F04790462DED048B0D46DDE917799DEDE6
:10320000149ADDED158A9DED168AFFF77DFC0446C4
:10321000401C1AD0724E56F824000078052806D0BB
:10322000E0B201F083F9E0B2052101F003FA56F8AB
:103230002400B5F5005F43680AD96FF00300BDECC8
:10324000048BBDE8F0075DF814FB4FF0FF30F6E7A4
:103250001D8056F824005FEA0801408A588007D094
:1032600001292DD0B8F1020F39D06FF00200E6E746
:10327000854202D22A46844601E00246AC46B2EBC1
:103280000C01ACEB020201D48C4601E0C1F1000C50
:10329000CCF5005C624505DA854201D2D9802DE08B
:1032A000DA802BE0854205D2002900DA4942C1F5D7
:1032B000005022E0002900DA4942A1F50051EDE773
:1032C000854201D2294601E00146284605D2081A66
:1032D00000D54042C0F500500FE0401A0DE0854295
:1032E00001D2294601E001462846A1EB000004D3A3
:1032F000002800DA4042A0F50050D880129830B182
:103300000246B3F90610D86800F0ECF9D860B3F9BA
:103310000600DDED0F0A00EE100A9DED101AB3F95C
:103320000810B8EEC00A411A20EE200AD3ED030AB5
:10333000F8EEE00A00EE810A00EE901A9DED111AF7
:103340001881F8EEE00ABDF94C1000EE810ABDEEDE
:10335000C00A10EE102A104600F034FC9880188243
:1033600056F8241047F6FF72C98A914201D2401ADA
:1033700006E0B1F5004F04D3401A4FF6FF71084440
:10338000D88237B13A46B3F91610D86900F0AAF9D5
:10339000D861B3F91600D3ED070A00EE100AB3F9AD
:1033A0001810F8EEE00AB8EEC00A411A188320EEB1
:1033B000090A00EEA80A00EE901A0FFA89F1F8EE59
:1033C000E00A00EE880ABDEEC00A10EE102A104690
:1033D00000F0F8FB988256F82410088201202EE7AE
:1033E000AC05001070B505460C46242000F09EFF89
:1033F000094B014607481A7840F822108D6050F8B2
:103400002210CC6050F822000121521C41771A7022
:1034100070BD0000AC05001084000010F0B5124D26
:1034200055F82030598A9A8A1C6A8A1A11B2002AE1
:1034300010DDA2F500520FE00F1E00DA4F42BE422F
:1034400001DAA11800E02144196255F82000418AF0
:103450008182F0BD02F5005212B2002A01DB16464D
:10346000EAE75642E8E70000AC05001030B50C462C
:10347000054601F017FA2919020A01F8040D4A70ED
:10348000020C8A70000EC87030BD000070B58AB0A2
:1034900028216846FCF740FF00240125039404948A
:1034A0000E26CDE908560094019402940594CDE9C6
:1034B000064569461048FDF755F902210E48FDF70B
:1034C000D0F80D48FDF71AFD00940F20CDE9044017
:1034D0000394CDE9085601940294CDE90645694666
:1034E0000648FDF73FF902210448FDF7BAF8034802
:1034F000FDF704FD0AB070BD0002001028020010A4
:103500000EB5344F344D354E4FF0FF394A466946BB
:10351000386802F05FF8BDF800009DF8021040BA6C
:10352000000440EA01209DF8031008435FF0000406
:1035300055F824108A6882423CD1BDF8042052BA62
:103540004A82BDF8061055F8242049BAD182BDF848
:10355000081055F8242049BA118355F824209DF805
:103560000A10917655F82410CA7EEAB18868A0F551
:103570000071013902D12046FFF750FF55F82400B1
:10358000A8468068A0F50071053902D12046FFF7F2
:1035900045FF58F824008068A0F5007106390DD168
:1035A0002046FFF73BFF09E04A8A8A8255F824202B
:1035B0000121D176641CE4B2052CB9D3E8683168E6
:1035C000C08A884200DA3060716888429EDD70608F
:1035D0009CE70000A4010010AC0500108C00001056
:1035E0001FB5144C114D124E4FF0FF38A71E424626
:1035F0006946286801F0EEFF0F21684601F050FC93
:103600000028F4D0BDF800003080BDF80200207022
:10361000BDF8040060809DF807009DF8061008437F
:10362000A0809DF808003870E1E70000AC010010B0
:1036300080010010B6010010254D264C264E274F64
:1036400028882070000A60706888A070000AE07006
:10365000A8882071000A6071E888A071000AE071F2
:10366000287A2072687A607296ED000A1C21BDEEFD
:10367000C00A10EE100AA07210EE100A000AE072E2
:1036800010EE100A000C207310EE100A000E60738A
:103690003888A073000AE07368892074000A607497
:1036A000A889A074000AE074287C2075687C607585
:1036B000688AA075000AE0750648FFF7D7FE1C224D
:1036C0000449074801F056F9022001F0A5FAB7E7CE
:1036D0004C06001098060010C4010010B000001045
:1036E000E002001008445142884201DA084670475F
:1036F0009042FCDD1046704710B5012001F0B6FD88
:10370000104C00220C2120600F2001F0C1FDA060B0
:10371000002212210F2001F0BBFD606000220C216D
:103720000F2001F0B5FD0F21E0600022084601F0F6
:10373000AFFD2061002217210F2001F0A9FD60617B
:1037400010BD00009C01001090B0434E434FDFF8C5
:103750001081444CDFF81091444D4FF0000A0DF1F8
:10376000280B30680168C943090707D4016840681D
:10377000009012223E493848FEF70BFD3868016878
:10378000C943090707D40168406800900F223949EE
:103790003248FEF7FEFC98F80000E8BB31491422DD
:1037A000783104A8FCF79FFD04F168000FC88DE88C
:1037B0000F0000224FF43E6140F20520636EFFF7D8
:1037C00015FD28491422A03104A8FCF78CFD2548DA
:1037D000803000F1100191E80E108DE80E10C368E2
:1037E000002240F2175140F20620FFF7FFFC04F1DF
:1037F00054000FC88DE80F000022114640F201204E
:10380000236D00F0DFFF9FED1C0AA4F80CA084EDEF
:103810000C0A84ED0D0A00E001E084F800A0618943
:10382000C9F834102022114906A8FCF75CFD95F870
:1038300020008DF83800686A0F90182259466846B3
:10384000FCF751FD0DF1180C9CE80F0000F062F937
:10385000012001F0E1F984E724030010E0020010E8
:1038600085010010A40000100000014000020010BB
:1038700060060010720600100000000008B502F09B
:10388000C3F81E4E1E4FDFF87C801F4D1F4C4FF4B7
:1038900080594FF4006A4FF4806B0090287801281B
:1038A00001D010B325E0002259462046FDF7EEFD79
:1038B000307838B1387801280BD098F8000001280A
:1038C0000DD016E0002249462046FDF7DFFD5146A7
:1038D0000CE0002251462046FDF7D8FD03E051469A
:1038E0002046FDF7CBFD494600E059462046FDF74E
:1038F000C5FDFA21684602F02FF8CFE786010010D7
:10390000870100108901001085010010001C024091
:103910004A42904201DA10B270478842FCDD084604
:10392000704700001CB572B6FDF7C4FDFFF714F92F
:10393000FEF75CFFFEF744FFFFF78AF8FFF7A4F8F5
:10394000FEF7FEFEFEF71CFFFFF7C0F8FEF7D6FFFE
:10395000FFF726F8FFF7D0FE00F0E8FFFFF796FD2F
:1039600000F0AEFF40F2FF142146A01DFFF73AFD24
:103970002146E01DFFF736FD641C2146601CFFF761
:1039800031FD2146A01CFFF72DFD2146E01CFFF76D
:1039900029FD00213448FEF78DFB04213348FEF752
:1039A00089FB08213148FEF785FB314940F295102B
:1039B000486330494FF47A700860091D086000249C
:1039C0000120CDE90004020223462BA12B4801F07F
:1039D00097FF0225CDE90054AE020023324628A10C
:1039E000294801F08DFFCDE900540023324627A17C
:1039F000294801F085FF0325CDE900540023324614
:103A000026A1294801F07CFFCDE90054002332466D
:103A100026A1294801F074FF0520CDE90004002308
:103A2000324626A12B4801F06BFF0425CDE9005456
:103A30000023324628A12D4801F062FFCDE9005451
:103A4000002332462AA12E4801F05AFF0620CDE974
:103A50000004002332462BA12D4801F051FF62B62D
:103A600001F0B0F9FEE700005002001098020010CB
:103A700000000140380401406C6564007D38000896
:103A800063616E5F726563000135000867696D628E
:103A9000616C5F7461736B004937000872656D6F0C
:103AA00074655F7265630000A145000843483131C9
:103AB000305F72656300000001040008636F6D6D84
:103AC000756E69636174696F6E5F7265636569764F
:103AD00065000000E1350008636F6D6D756E696308
:103AE0006174696F6E5F73656E640000393600083B
:103AF000766973696F6E5F72656369766500000051
:103B0000C94E0008766973696F6E5F73656E6400F5
:103B1000095100080FB44FF0FF312DE9F041264D57
:103B20008CB0286801F0F2FD00204FF40076CDE95A
:103B3000006008220290CDE90302711ECDE9061053
:103B40008DF814000890CDE909021C4F8DF82C0067
:103B50000446884657F82400C068B04203D1204686
:103B6000FFF7F8FA04E0404502D12046FFF7C6FA15
:103B7000641CE4B2052CEDD312A8FCF7EEFE28B1CC
:103B800001230F4A694612A8FCF77DFD12A8FCF735
:103B9000E4FE30B10A4A0123083212A806A9FCF754
:103BA00072FD00231A461946286801F0F9FB0CB093
:103BB000BDE8F0015DF814FB9C010010AC0500109D
:103BC000940000104A42904201DA10B270478842D5
:103BD00001DD0846704700B2704700002DE9F04152
:103BE0001E4C0F460546E6682068001D00F0D1FE19
:103BF00038B9206890F82C10012088402169814351
:103C00002161681C15D1A7B11549226848689060E8
:103C100023688268DA6022688368121D5A6022680D
:103C2000121D8260206841610868401C0860BDE880
:103C3000F08120683544B5424560216805D2E06BCB
:103C4000BDE8F041091D00F0C5BEA06B091D00F0E4
:103C5000C1FEA06A8542EAD2A562E8E7040000102E
:103C6000700500102DE9F041054600F0CBFE364C02
:103C7000A068401CA0602068344F10B1606940B358
:103C80002DE02560A068012829D1002606EB8600DA
:103C900007EB800000F090FE761C072EF6D32B4831
:103CA0008C3000F089FE2948A03000F085FE2748BE
:103CB000B43000F081FE2548C83000F07DFE234876
:103CC000DC3000F079FE21488C30A0631430E063D2
:103CD00005E02068E96AC06A884200D82560606A09
:103CE000401C60622864E96A012022698840104310
:103CF000206101EB810007EB80004068A8608168CB
:103D0000E9608268291D51608160E86A00EB8000EB
:103D100007EB8001696157F82010491C47F8201013
:103D200000F090FE606900280CD02068E96AC06A43
:103D3000884207D206494FF080500860BFF34F8F8A
:103D4000BFF36F8FBDE8F0810400001094040010F1
:103D500004ED00E010B500F055FE0E4C2068A0B94F
:103D60000D4800F029FE0C48143000F025FE0A48EA
:103D7000E0601430206100220C210A2001F088FA52
:103D8000206010B105A100F0DFFEBDE8104000F09A
:103D900059BE00004400001084050010546D72519B
:103DA0000000000030B4026C0B46002A0BD0C16842
:103DB0001144C1608468A14201D30168C16030BC74
:103DC0001846FCF790BA30BC70472DE9F041856B7E
:103DD000174604460026026C82B1C7B1E068FCF7C2
:103DE00082FAE168206C091AE1602268914202D2ED
:103DF000A168081AE060022F16D017E02068A8B961
:103E0000A06801F0A3FE06460020A0600EE06068F6
:103E1000FCF769FA216C606808446060A168884218
:103E200004D32068606001E005B16D1E6D1CA563C0
:103E30003046BDE8F08110B50446006B00F016FE78
:103E40002046BDE8104000F011BE000010484FF4BD
:103E50009631420706D0C01D0D4920F00700411AD7
:103E6000C1F596310B4A00230144C2E90003083929
:103E7000183A21F0070111604B600B600B1AC0E982
:103E8000001393604FF00040536050617047000092
:103E9000000000207C000010144E154CA6F1C8074D
:103EA0004FF08058DFF84C9012E000BF00F0AAFD00
:103EB000F068C568281D00F06CFDA068401EA06079
:103EC0006068401E606000F0BDFD2846FFF7B3FF4C
:103ED00060680028EAD138680128F9D9C9F800805B
:103EE000BFF34F8FBFF36F8FF2E700005C05001048
:103EF0000400001004ED00E02DE9F05F8846DDE9E4
:103F00000B941546834691009A460A9EA522206B83
:103F1000FCF7FBF96FF00301206B01EB850108440E
:103F200020F00707780707D0502080F31188BFF3EF
:103F30004F8FBFF36F8FFEE70025B8F1000F0FD052
:103F40005FF00000221818F8001082F8341018F8FA
:103F5000001011B1401C0A28F4D384F83D5001E050
:103F600084F83450072E07D3502080F31188BFF314
:103F70004F8FBFF36F8FFEE7E662C4E91265201D25
:103F800000F025FD04F1180000F021FD2461C6F1C8
:103F900007006462A061256584F854505246594672
:103FA000384600F043FA2060B9F1000F01D0C9F89B
:103FB0000040BDE8F09F000030B5114900E0114617
:103FC0000A688242FBD34B685C18844203D1406884
:103FD00018444860084643681C18944209D1084CAC
:103FE000183C2468A24209D052681A4442600A6808
:103FF00012680260814200D0086030BD0460F9E7B9
:104000007C00001070B5002441600B4D00619142AE
:1040100006D8D11A8269914206D2011D286907E0AB
:104020009A4203D2994201D3012403E0011DE868BA
:1040300000F0D0FC204670BD4400001010B50446CE
:1040400000F0E0FCA06B28B15FF0000400F0FAFC87
:10405000204610BD0124F9E770B506460D480D460F
:10406000C068C068C468201D00F093FC94F8280064
:10407000410705D52A463146204600F0B5F803E051
:1040800000F0FE0084F828002046216ABDE8704058
:1040900008470000440000107FB5374E63E00098E9
:1040A000002860DB029C606910B1201D00F071FCEB
:1040B00003A800F0BBF8054600980A2853D2DFE8B1
:1040C00000F0520505282E460505282E94F82800F4
:1040D0002A4640F0010084F828000199A069019B5C
:1040E00001442046FFF78EFF40B394F828004107B3
:1040F00007D50198A1692A460144204600F074F8CA
:1041000003E000F0FE0084F82800216A204688477A
:1041100029E014F8280F00F0FE00207023E094F846
:10412000280040F0010084F828000198A06130B117
:1041300041192B461A462046FFF764FF13E0502032
:1041400080F31188BFF34F8FBFF36F8FFEE794F8B2
:104150002800810703D4204600F088FC03E000F02B
:10416000FE0084F8280000226946306801F032FA27
:10417000002894D17FBD000044000010F8B50D4622
:10418000064600F057FE684600F050F804460098D6
:1041900010B101F0FDFDF8BD1148ADB1016909682C
:1041A000D9B10025311B2A46006800F0F5FC01F06A
:1041B000EFFD0028EFD10B494FF080500860BFF3AE
:1041C0004F8FBFF36F8FF8BDA642EBD801F0E0FD33
:1041D00021463046FFF740FFF8BD0125E2E7000029
:1041E0004400001004ED00E070B516460C4605468C
:1041F00004E0A869296A044428468847A869234638
:10420000011932462846FFF7FDFE0028F1D170BDA6
:104210000548816B096821B1816BC96809688162B1
:1042200070474FF0FF31FAE7040000102DE9F0412C
:10423000064601F0E9FB0E4C0546A068854214D203
:104240004FF0FF3704E0C06839460068FFF704FF0D
:10425000E06801680029F6D12169C4E90310012052
:1042600030602846A560BDE8F0810020F8E7000036
:104270004400001008484068401C4FF0500080F394
:10428000118804D0BFF34F8FBFF36F8FFEE7BFF3EA
:104290004F8FBFF36F8FFEE758000010074CE068A8
:1042A000016841B1C0680021D0F80000FFF766FF47
:1042B000FFF7F2FEF3E701210020F7E744000010CA
:1042C0002DE9F041044600F09DFB94F9455004F1BE
:1042D000240609E0606A48B1304601F0EBFC08B101
:1042E00000F0C8FC6D1E6DB2002DF3DC4FF0FF3600
:1042F00084F8456000F0A6FB00F084FB94F944507C
:1043000004F1100709E0206948B1384601F0D2FCF9
:1043100008B100F0AFFC6D1E6DB2002DF3DC84F827
:104320004460BDE8F04100F08DBB00002DE9F04194
:104330000546002700F07EFD354E306808B9FFF7CE
:1043400085FD7069054254D1F5B305F10804AC420E
:104350004FD9600711D004F00700C0F108002044D5
:10436000A04246D90446400707D0502080F3118868
:10437000BFF34F8FBFF36F8FFEE72CB3706884429B
:1043800037D82348183001460D6801E028460D460D
:104390006968A14202D229680029F7D131688D42AB
:1043A00027D007682968016068680837011B102951
:1043B0000FD92819420708D0502080F31188BFF385
:1043C0004F8FBFF36F8FFEE713E041606C60FFF724
:1043D000F3FD69687068401A7060B268904200D25C
:1043E000B060706901430020C5E90001F068401C1D
:1043F000F06001F0CDFC780707D0502080F31188E1
:10440000BFF34F8FBFF36F8FFEE73846BDE8F081F3
:10441000640000100449086818B10868C26C521C96
:10442000C2640868704700000400001010B5031F44
:104430004FF080741C601B1F21F001011960191FCF
:10444000044B0B6014390A60091F6FF002024438F4
:104450000A6010BD7542000808B54FF47A7A01F081
:10446000D3FADFF8C49001262E4F0025A9F11004DD
:104470000090A378E17800204FEA090257F82080E5
:1044800098F81DC0BCF1010F07D198F81CC0BCF111
:10449000010F15D0012319461654401CC0B205283F
:1044A000ECD3A370E170207901280DD0A67066715D
:1044B000A07901280BD0A670E67101290DD025E066
:1044C00088F81C501554E8E725716571F0E7A5716F
:1044D000E571A0780128F0D018E0E57094F800307C
:1044E0000020294657F820C09CF81DC0BCF1010FE0
:1044F00006D112F800C0BCF1010F01D101210B4619
:10450000401CC0B20528EDD3E1702370C8B26179B8
:104510000843E179084300D1A5705146684601F08F
:104520001BFAA6E7AC0500109401001070B51A4DF7
:1045300004461A4955F824201078072828D2DFE8C5
:1045400000F02704080C101418004878401E48702A
:1045500012E08878401E88700EE0C878401EC8704F
:104560000AE00879401E087106E04879401E48714B
:1045700002E08879401E8871506800F077FA55F89B
:1045800024100020486055F824100870012070BDE8
:104590006FF0010070BD0000AC0500108400001039
:1045A000224D234C86B04FF0FF36324669462868CC
:1045B00001F010F8BDF80000C0F30A0020809DF85B
:1045C0000100C1089DF8020041EA4011C1F30A014F
:1045D00061809DF80310800940EA81019DF8040084
:1045E00041EA8021C1F30A01A18041089DF805003C
:1045F00041EAC011C1F30A01E18081092172C0F3CF
:1046000001106072BDF806006081BDF80800A0814D
:10461000BDF80A00E0819DF80C0020749DF80D00A3
:104620006074BDF80E006082BFE70000A0010010BA
:104630004C0600102DE9F0410027604C604D064605
:1046400009297DD2DFE801F0B7051E37506984B72C
:104650009F001020FFF76AFE59496278143141F833
:104660002200076047608760C76051F8220055F854
:104670002610486055F82610012008706078401C0C
:1046800060707DE01C20FFF751FE4D4FA178283768
:1046900047F821001C21FBF73FFEA07855F82610B3
:1046A00057F82000486055F8261002200870A078BE
:1046B000401CA07064E01020FFF738FE4049E2780B
:1046C0003C3141F82200076047608760C76051F8BD
:1046D000220055F82610486055F82610032008706F
:1046E000E078401CE0704BE03420FFF71FFE344FB1
:1046F0002179503747F821003421FBF70DFE20794E
:1047000055F8261057F82000486055F82610042068
:1047100008702079401C207132E02020FFF706FE4F
:10472000274F6179643747F821002021FBF7F4FD1A
:10473000607955F8261057F820004860052000E001
:1047400039E055F8261008706079401C607117E058
:104750002020FFF7EBFD1A4FA179783747F82100A9
:104760002021FBF7D9FDA07955F8261057F8200035
:10477000486055F8261006200870A079401CA071EA
:104780000120BDE8F0812020FFF7D0FD0C4FE1793A
:104790008C3747F821002021FBF7BEFDE07955F862
:1047A000261057F82000486055F826100820087099
:1047B000E079401CE0716FF00100E2E78400001036
:1047C000AC0500100FB42DE9F04117460D46FEF779
:1047D0009BF90446401C1FD0314E56F82400007847
:1047E000012806D0E0B2FFF7A1FEE0B20121FFF7F9
:1047F00021FF56F824003946436828461D80FFF7FC
:1048000087F8188056F82420014647F6FF75D08AAD
:10481000A84207D280B209E04FF0FF30BDE8F001B6
:104820005DF814FBB0F5004F01D3401C5880588848
:10483000081A01B2D9800C9820B10246D868FEF758
:1048400051FFD860B3F90600DDED090A00EE100A49
:104850009DED0A1AB3F90810B8EEC00A411A20EE0D
:10486000200AD3ED030AF8EEE00A00EE810A00EE1A
:10487000901A9DED0B1A1881F8EEE00ABDF934107C
:1048800000EE810ABDEEC00A10EE102A1046FFF7B6
:1048900099F9988056F8241008820120BEE700009C
:1048A000AC0500100346002010B50246091F03E0C6
:1048B0009C5C521C2044D2B28A42F9D310BD000045
:1048C00038B51048002300901A4646F2A8110EA0F1
:1048D00001F0F4FA104C01230022A0600F48009070
:1048E00040F6B8310EA001F0E9FAE06001F08CF872
:1048F00002460020034600900121A06801F036FB2B
:1049000038BD0000E94B0008537769746368205490
:10491000696D65720000000084010010DD4B000825
:1049200052657365742054696D65720010B512226A
:104930000B490C48FDF72DFC09490F2212310A489A
:10494000FDF727FC0649172221310848FDF721FC15
:1049500007484FF48061018041808180C18010BD93
:104960006006001024030010E0020010680300102D
:104970004C06001070B514460D46064600F042F88D
:10498000224629463046FDF7BAFEBDE8704000F0E9
:1049900059B8D0E9013201699A60D0E901235A601F
:1049A0004A68824201D182684A6000220261086836
:1049B000401E08600868704700F108014FF0FF32A0
:1049C000C0E90112C160016100210160704700214E
:1049D0000161704730B50B685A1C02D000F1080223
:1049E00002E0026904E02246546825689D42FAD933
:1049F00053684B6099608A60516008610168491C86
:104A0000016030BD502080F31188BFF34F8FBFF39A
:104A10006F8F0A494868401C486001280CD108483B
:104A2000006810F0FF0F07D0502080F31188BFF30B
:104A30004F8FBFF36F8FFEE77047000058000010E4
:104A400004ED00E00849486828B1401E486001D1E3
:104A500080F311887047502080F31188BFF34F8F87
:104A6000BFF36F8FFEE700005800001070B50028FC
:104A70002AD0164DA0F1080460686969084207D180
:104A8000502080F31188BFF34F8FBFF36F8FFEE785
:104A900022683AB1502080F31188BFF34F8FBFF3E3
:104AA0006F8FFEE78843606000F0C4F96068696852
:104AB000084468602046FFF77FFA2869401C286197
:104AC000BDE8704001F064B970BD000064000010E2
:104AD0004FF0E02000210161816105494FF47A72B5
:104AE0000968B1FBF2F1491E41610721016170477C
:104AF000FC01001010B5FBF7AFFB114910280ED3D5
:104B000000F1E02090F8F0030A78904207D250209C
:104B100080F31188BFF34F8FBFF36F8FFEE7094813
:104B20000068896800F4E060884207D9502080F36B
:104B30001188BFF34F8FBFF36F8FFEE710BD0000EA
:104B4000580000100CED00E070B568B1002200299B
:104B50001ED0104C002300BF04EBC3056E688642D4
:104B60000AD104EBC3020FE0502080F31188BFF399
:104B70004F8FBFF36F8FFEE71AB954F8336006B951
:104B80002A465B1C082BE7D3002A01D0C2E900109B
:104B900070BD00005404001070B515460E46044662
:104BA000FFF730FF94F944100020491C01D184F82C
:104BB000440094F94510491C01D184F84500FFF7E1
:104BC00041FFA06B28B92A46314604F1240000F0C9
:104BD0006FF82046BDE87040FFF772BB0149012025
:104BE00008707047850100101CB5074901204FF47B
:104BF0000072487000210520CDE900010B4603A199
:104C0000044800F07DFE1CBD840100104D6F6E69EC
:104C1000746F72005944000810B5020014D00F4898
:104C2000406B38B1502080F31188BFF34F8FBFF332
:104C30006F8FFEE700F0FEF800211046FEF7CEFF72
:104C400001F0A6F8002807D105494FF08050086010
:104C5000BFF34F8FBFF36F8F10BD00000400001033
:104C600004ED00E002490A6A0260C96841607047C9
:104C70000400001001490120C861704704000010C1
:104C800010B50C4650B1094909681831FFF7A2FE6A
:104C90002046BDE810400121FEF7A0BF502080F360
:104CA0001188BFF34F8FBFF36F8FFEE70400001032
:104CB000F0B40C46D0B1114943680D68EB619D68B2
:104CC0000E6835620D689E68183575600D68183578
:104CD0009D60096888620168491C01600AB14FF053
:104CE000FF342046F0BC1146FEF778BF502080F319
:104CF0001188BFF34F8FBFF36F8FFEE704000010E2
:104D000070B5040058D0E26CA2B1A06C884200D308
:104D10000146E06A88424FD0012A4DD1274D2A68CA
:104D200094420FD1502080F31188BFF34F8FBFF30F
:104D30006F8FFEE7502080F31188BFF34F8FBFF3D2
:104D40006F8FFEE7E162A269002A02DBC1F1070171
:104D5000A1611B4E00EB8000616906EB800081427F
:104D60002AD1201DFFF715FE012130B994F82C003F
:104D70002A6901FA00F082432A61E06A2A698140C7
:104D80001143296100EB800006EB80004068A060C1
:104D90008168E1608268211D51608160E06A00EBFA
:104DA000800006EB80006061E06A00EB800056F84E
:104DB0002010491C46F8201070BD000004000010AF
:104DC000940400107CB517480025CDE900502B460F
:104DD000822215A1164800F093FD124C2C3C0128AC
:104DE00003D101F09DF8012802D0401C11D00EE043
:104DF000502080F31188BFF34F8FBFF36F8F4FF0B8
:104E0000FF30A06201206061E56000F0B5F9206B21
:104E10007CBD502080F31188BFF34F8FBFF36F8F9D
:104E2000FEE700003000001049444C45000000003F
:104E3000993E00080248416B491C416370470000DD
:104E4000040000101448416B11B10121C161704789
:104E50000021C1610169B1FA81F1C1F11F0101EBCA
:104E600081020E4951F822306BB101EB820101F150
:104E700008034A6852684A609A4201D152684A60FF
:104E8000D16801607047502080F31188BFF34F8FC5
:104E9000BFF36F8FFEE700000400001094040010C1
:104EA00010B5421812F8024C32F8043DD27864F37F
:104EB0001F4343EA0264FFF7F5FC844201D101205D
:104EC00010BD002010BD0000894D08B5874F894CEA
:104ED0004FF00A0BA5F10E094FF0010A002600BFA2
:104EE0004FF0FF328249386800F074FB28785B2865
:104EF00070D1A87D5D28FBD184F802A0A878642138
:104F0000D446303810FB01F001B268784FF47A7261
:104F1000303810FB02F001FA80F029790144E8787A
:104F200000EB8002744800EB420211440FFA81F852
:104F3000A4F80E80E9796422303911FB02F10AB23B
:104F4000A9794FF47A73303911FB03F102FA81F138
:104F50006A7A11442A7A02EB820200EB420211447F
:104F600009B2A1818E46297B6422303911FB02F1FE
:104F70000AB2E97A303911FB03F102FA81F1AA7B16
:104F800011446A7B02EB820200EB4202114409B237
:104F900061810091697C6422303911FB02F10AB20F
:104FA000297C303911FB03F102FA81F1EA7C1144CA
:104FB000AA7C02EB820200EB4200084400B220818E
:104FC00084F804C0697D3039A171E17819B10129F3
:104FD0001FD045E068E05846A8F57A7898FBF0F1D4
:104FE00000EE101AB8EEC00ABDEEC00A10EE101A9C
:104FF000A9F80010AEF57A7191FBFBF000EE100AF3
:10500000B8EEC00ABDEEC00A10EE100AC9F80200E0
:1050100026E0009A5946A2F57A7292FBF1F200EE70
:10502000102AD4ED090AA0F57A70B8EEC00A90FBF8
:10503000FBF020EE200ABDEEC00A10EE103A00EEA2
:10504000100AA9F80030D4ED080AB8EEC00A20EE24
:10505000200ABDEEC00A10EE100AC9F80200A671BF
:10506000607901281CD1D9F80210254A494200EE86
:10507000101A2249B8EEC00AD1ED020A30EE200A19
:1050800082ED000AB9F90000D1ED010A404200EEBC
:10509000100A1C48B8EEC00A30EE200A80ED000A63
:1050A000A079012805D02670A6700520FFF7B4FD71
:1050B00016E784F800C0A069E046401CA061607853
:1050C00030B900F0A1FC6061A069E06184F8018062
:1050D00000F09AFC6169401A41F288318842E3D3BA
:1050E0006670D4E90601401A2061DDE7B0010010C6
:1050F000E2060010C8010010F0FDFFFFB40600102A
:10510000D4000010D80000102DED028B82B000F00A
:105110007BFC154D154E164CB2EE048AFF2700900D
:1051200028680168C943090707D4016840680190ED
:10513000172210490C48FDF72CF896ED020A27704B
:105140000C2220EE080ABDEEC00A10EE100A010A79
:105150006170A07006490448FFF70CFC0A216846FC
:1051600000F0FAFBDCE7000068030010B406001052
:10517000C8060010810600101CB537480168374A80
:10518000914207D1502080F31188BFF34F8FBFF3B6
:105190006F8FFEE700683149491E884207D15020D1
:1051A00080F31188BFF34F8FBFF36F8FFEE72C4959
:1051B00008780190FF20087008788DF800009DF8AD
:1051C00000009DF8002000F0F000904207D0502031
:1051D00080F31188BFF34F8FBFF36F8FFEE79DF809
:1051E0000000204C00F0500020700720A06005E077
:1051F0009DF8002052008DF80020401E9DF80020F0
:105200001206F5D4A060032807D0502080F311883F
:10521000BFF34F8FBFF36F8FFEE74FF44070A06076
:10522000019808700C482030016841F47001016059
:10523000016841F070410160FFF74AFC00206060A6
:10524000FAF7D2FF0848016841F040410160FAF7DF
:10525000B7FF00201CBD000000ED00E071C20F414F
:1052600000E400E05800001034EF00E010B5024602
:105270000021012000F00CF8041E07D000218160FD
:1052800001600B460A46C16000F08AF8204610BD56
:105290002DE9F04117460E46050020D04FF0FF30B3
:1052A000B0FBF5F0B0421AD305FB06F010F1510F38
:1052B00015D85030FFF73AF804000CD004F1500034
:1052C0005EB12060C4E90F562046012100F010F8BD
:1052D000204684F84C70BDE8F0812460F2E750204D
:1052E00080F31188BFF34F8FBFF36F8FFEE700008D
:1052F0002DE9F0410F4604004FF001062DD0E06B80
:1053000098B3B51EB5FBF0F1206C81423ED3FFF798
:1053100079FBD4E90F20216802FB0011A160002174
:10532000A163216861600A46D4E90F01401E00FBB9
:1053300001212046E16000F8445F457004F110004F
:10534000A7B1FFF739FB04F12400FFF735FB00BFDD
:10535000FFF778FB3046BDE8F081502080F31188DC
:10536000BFF34F8FBFF36F8FFEE70FE02169002976
:10537000EED000F09FFC0028EAD008494FF08050A2
:105380000860BFF34F8FBFF36F8FE1E7502080F3CA
:105390001188BFF34F8FBFF36F8FFEE704ED00E07E
:1053A0002DE9FF4782B01D468A464FF000080400F1
:1053B00003D0BAF1000F08D011E0502080F311881B
:1053C000BFF34F8FBFF36F8FFEE7206C38B15020D3
:1053D00080F31188BFF34F8FBFF36F8FFEE7022D6D
:1053E0000AD1E06B012807D0502080F31188BFF369
:1053F0004F8FBFF36F8FFEE700F0F8FA3F4F4FF08B
:1054000000094FF0805648B9049838B1502080F315
:105410001188BFF34F8FBFF36F8FFEE7FFF7F2FAEC
:10542000A06BE16B884207D3022D05D00498D0B160
:10543000B8F1000F1AD01EE02A4651462046FEF76A
:10544000C4FC616A19B104F1240000F033FC20B1FE
:105450003E60BFF34F8FBFF36F8FFFF7F3FA01206A
:1054600006B0BDE8F087FFF7EDFA22E06846FFF7E7
:10547000F9FB4FF00108FFF7E5FAFFF7DBFCFFF758
:10548000C1FA94F94400401C01D184F8449094F985
:105490004500401C01D184F84590FFF7D3FA04A9D8
:1054A000684600F0EFF930B12046FEF709FF00F042
:1054B0006FFC0020D4E7FFF7A5FAA06BE16B8842F0
:1054C00013D1FFF7BFFA04F110000499FFF7D8FBDE
:1054D0002046FEF7F5FE00F05BFC00289ED13E6002
:1054E000BFF34F8FBFF36F8F98E7FFF7ABFA2046FC
:1054F000FEF7E6FE00F04CFC90E7000004ED00E053
:105500002DE9F0471F4690468946040003D0B9F1C3
:10551000000F08D011E0502080F31188BFF34F8FA7
:10552000BFF36F8FFEE7206C38B1502080F31188F5
:10553000BFF34F8FBFF36F8FFEE7022F0AD1E06BEF
:10554000012807D0502080F31188BFF34F8FBFF39D
:105550006F8FFEE7FFF7CEFA5020EFF3118680F34E
:105560001188BFF34F8FBFF36F8FA06BE16B884241
:1055700006D3022F04D0002086F31188BDE8F087FF
:1055800094F94550A06B3A4649462046FEF71DFC6B
:10559000681C06D07F2D14D06D1C84F84550012066
:1055A000EAE7606A0028FAD004F1240000F082FBE8
:1055B0000028F4D0B8F1000FF1D00121C8F8001094
:1055C000EDE7502080F31188BFF34F8FBFF36F8F4B
:1055D000FEE700002DE9F747002683B08A46040065
:1055E00003D0BAF1000F08D011E0502080F31188E9
:1055F000BFF34F8FBFF36F8FFEE7206C38B15020A1
:1056000080F31188BFF34F8FBFF36F8FFEE700F079
:10561000EDF9DFF8F4804FF000094FF0805748B9FA
:10562000059838B1502080F31188BFF34F8FBFF336
:105630006F8FFEE7FFF7E6F9A56BC5B1514620462F
:10564000FEF7B0FB6D1EA563206950B104F1100098
:1056500000F030FB28B1C8F80070BFF34F8FBFF3E4
:105660006F8FFFF7EFF9012006B0BDE8F0870598CE
:1056700008B11EB106E0FFF7E5F927E06846FFF73D
:10568000F1FA0126FFF7DEF9FFF7D4FBFFF7BAF9CD
:1056900094F94400401C01D184F8449094F94500E9
:1056A000401C01D184F84590FFF7CCF905A9684664
:1056B00000F0E8F8002820460AD0FEF701FE00F0CE
:1056C00067FB2046FEF7BAFC0028B3D00020CBE7EA
:1056D000FEF7B4FC90B104F124000599FFF7D0FA6D
:1056E0002046FEF7EDFD00F053FB0028A2D1C8F8DC
:1056F0000070BFF34F8FBFF36F8F9BE72046FEF71D
:10570000DFFD00F045FB95E704ED00E02DE9F343F4
:10571000002683B00400354609D0206C78B15020B3
:1057200080F31188BFF34F8FBFF36F8FFEE75020D8
:1057300080F31188BFF34F8FBFF36F8FFEE700F048
:1057400055F9DFF83C814FF000094FF0805748B918
:10575000049838B1502080F31188BFF34F8FBFF306
:105760006F8FFEE7FFF74EF9A06BC8B1401EA06334
:10577000206810B9FEF74EFEA060206950B104F118
:10578000100000F097FA28B1C8F80070BFF34F8FEF
:10579000BFF36F8FFFF756F9012005B0BDE8F08326
:1057A000049808B166B10FE03DB1502080F3118834
:1057B000BFF34F8FBFF36F8FFEE7FFF743F95DE055
:1057C0006846FFF74FFA0126FFF73CF9FFF732FB77
:1057D000FFF718F994F94400401C01D184F8449073
:1057E00094F94500401C01D184F84590FFF72AF94F
:1057F00004A9684600F046F80028204612D0FEF7BB
:105800005FFD00F0C5FA2046FEF718FC0028A9D07D
:105810009DB3FFF7F7F8606A50B3206B0068C0F1E2
:10582000070126E0FEF70AFCE0B1206838B9FFF76F
:10583000E9F8A06800F0E6F90546FFF703F904F17E
:1058400024000499FFF71CFA2046FEF739FD00F00A
:105850009FFA002886D1C8F80070BFF34F8FBFF3BE
:105860006F8F7FE72046FEF72BFD00F091FA79E776
:105870000021A068FFF744FA9FE7FFE700208CE7CC
:1058800004ED00E02DE9F0410C46050014D0DCB138
:10589000FFF7B8F8194EF2686B682068D11A471CF8
:1058A0001AD02F68D6F820C00026674516D093423C
:1058B00014D8012526601BE0502080F31188BFF327
:1058C0004F8FBFF36F8FFEE7502080F31188BFF337
:1058D0004F8FBFF36F8FFEE7002509E0884205D99F
:1058E000401A20602846FFF7BDF9F5E7012526603C
:1058F000FFF7A8F82846BDE8F0810000040000107A
:105900002DE9FF5F8346DDE90E87994616468A46F4
:105910009000FEF70BFD05001AD05820FEF706FD9B
:10592000040012D025630021CDE90241CDE90087B2
:105930004B46324651465846FEF7DEFA2046FEF701
:1059400091F9012004B0BDE8F09F2846FFF78EF8DA
:105950004FF0FF30F6E7000070B50E4605004FF03F
:1059600000040BD096B11F4A506BB8B1502080F3A1
:105970001188BFF34F8FBFF36F8FFEE7502080F386
:105980001188BFF34F8FBFF36F8FFEE7502080F376
:105990001188BFF34F8FBFF36F8FFEE7FFF74AFA0F
:1059A000D2682B689919934204D98B420BD9914242
:1059B00002D808E08B42FAD9881A29600124002114
:1059C000FEF70CF900E0296000F0E2F938B9064969
:1059D0004FF080500860BFF34F8FBFF36F8F2046AA
:1059E00070BD00000400001004ED00E005484169AE
:1059F00019B1406B18B10020704701207047022098
:105A000070470000040000100148C06870470000A3
:105A1000040000102DE9F0414A4C0026606B28B1CB
:105A2000A069401CA0613046BDE8F081E5686D1CAE
:105A3000E56013D1A06B006838B1502080F3118865
:105A4000BFF34F8FBFF36F8FFEE7A06BE16BA163D6
:105A5000E063206A401C2062FEF7DAFBA16A3A4844
:105A60008D420FD34FF0000EA16B096839B1A16BC5
:105A7000C968C9684A68954212D2A26202E04FF032
:105A8000FF31A1622168C96A01EB810150F8210050
:105A9000012800D90126E0690028C4D00126C2E708
:105AA000D1E902724B69BA60D1E902277A605F6876
:105AB0000A1D974201D1CF685F60C1F814E01F68EA
:105AC0007F1E1F60D1F828C0BCF1000F15D0D1E9AE
:105AD00007379F60D1E907377B60DCF8047001F17C
